{
  "_format": "hh-sol-artifact-1",
  "contractName": "Supplychain",
  "sourceName": "contracts/SupplyChain.sol",
  "abi": [
    {
      "inputs": [],
      "stateMutability": "nonpayable",
      "type": "constructor"
    },
    {
      "inputs": [
        {
          "internalType": "string",
          "name": "name",
          "type": "string"
        },
        {
          "internalType": "string",
          "name": "description",
          "type": "string"
        },
        {
          "internalType": "string",
          "name": "reqtemperature",
          "type": "string"
        },
        {
          "internalType": "string",
          "name": "reqhumidity",
          "type": "string"
        },
        {
          "internalType": "string",
          "name": "manufacturing",
          "type": "string"
        }
      ],
      "name": "AddProduct",
      "outputs": [],
      "stateMutability": "payable",
      "type": "function"
    },
    {
      "inputs": [
        {
          "internalType": "string",
          "name": "location",
          "type": "string"
        },
        {
          "internalType": "string",
          "name": "temp",
          "type": "string"
        },
        {
          "internalType": "string",
          "name": "humidity",
          "type": "string"
        },
        {
          "internalType": "int256",
          "name": "wid",
          "type": "int256"
        },
        {
          "internalType": "int256",
          "name": "pid",
          "type": "int256"
        },
        {
          "internalType": "int256",
          "name": "total_quantity",
          "type": "int256"
        },
        {
          "internalType": "bool",
          "name": "flag",
          "type": "bool"
        }
      ],
      "name": "AddStatus",
      "outputs": [],
      "stateMutability": "payable",
      "type": "function"
    },
    {
      "inputs": [
        {
          "internalType": "string",
          "name": "name",
          "type": "string"
        }
      ],
      "name": "addWorker",
      "outputs": [],
      "stateMutability": "payable",
      "type": "function"
    },
    {
      "inputs": [
        {
          "internalType": "int256",
          "name": "id",
          "type": "int256"
        }
      ],
      "name": "getProductStatus",
      "outputs": [
        {
          "components": [
            {
              "internalType": "int256",
              "name": "w_id",
              "type": "int256"
            },
            {
              "internalType": "int256",
              "name": "p_id",
              "type": "int256"
            },
            {
              "internalType": "string",
              "name": "location",
              "type": "string"
            },
            {
              "internalType": "string",
              "name": "temp",
              "type": "string"
            },
            {
              "internalType": "string",
              "name": "humidity",
              "type": "string"
            },
            {
              "internalType": "int256",
              "name": "total_quantity",
              "type": "int256"
            },
            {
              "internalType": "bool",
              "name": "flag",
              "type": "bool"
            }
          ],
          "internalType": "struct Supplychain.Status[]",
          "name": "",
          "type": "tuple[]"
        }
      ],
      "stateMutability": "view",
      "type": "function"
    },
    {
      "inputs": [],
      "name": "getProducts",
      "outputs": [
        {
          "components": [
            {
              "internalType": "int256",
              "name": "id",
              "type": "int256"
            },
            {
              "internalType": "string",
              "name": "name",
              "type": "string"
            },
            {
              "internalType": "string",
              "name": "description",
              "type": "string"
            },
            {
              "internalType": "string",
              "name": "reqtemperature",
              "type": "string"
            },
            {
              "internalType": "string",
              "name": "reqhumidity",
              "type": "string"
            },
            {
              "internalType": "string",
              "name": "manufacturing",
              "type": "string"
            }
          ],
          "internalType": "struct Supplychain.Product[]",
          "name": "",
          "type": "tuple[]"
        }
      ],
      "stateMutability": "view",
      "type": "function"
    },
    {
      "inputs": [],
      "name": "getWorkerssList",
      "outputs": [
        {
          "components": [
            {
              "internalType": "string",
              "name": "name",
              "type": "string"
            },
            {
              "internalType": "int256",
              "name": "id",
              "type": "int256"
            }
          ],
          "internalType": "struct Supplychain.Worker[]",
          "name": "",
          "type": "tuple[]"
        }
      ],
      "stateMutability": "view",
      "type": "function"
    },
    {
      "inputs": [
        {
          "internalType": "uint256",
          "name": "",
          "type": "uint256"
        },
        {
          "internalType": "uint256",
          "name": "",
          "type": "uint256"
        }
      ],
      "name": "product_Status",
      "outputs": [
        {
          "internalType": "int256",
          "name": "w_id",
          "type": "int256"
        },
        {
          "internalType": "int256",
          "name": "p_id",
          "type": "int256"
        },
        {
          "internalType": "string",
          "name": "location",
          "type": "string"
        },
        {
          "internalType": "string",
          "name": "temp",
          "type": "string"
        },
        {
          "internalType": "string",
          "name": "humidity",
          "type": "string"
        },
        {
          "internalType": "int256",
          "name": "total_quantity",
          "type": "int256"
        },
        {
          "internalType": "bool",
          "name": "flag",
          "type": "bool"
        }
      ],
      "stateMutability": "view",
      "type": "function"
    },
    {
      "inputs": [
        {
          "internalType": "uint256",
          "name": "",
          "type": "uint256"
        }
      ],
      "name": "products_list",
      "outputs": [
        {
          "internalType": "int256",
          "name": "id",
          "type": "int256"
        },
        {
          "internalType": "string",
          "name": "name",
          "type": "string"
        },
        {
          "internalType": "string",
          "name": "description",
          "type": "string"
        },
        {
          "internalType": "string",
          "name": "reqtemperature",
          "type": "string"
        },
        {
          "internalType": "string",
          "name": "reqhumidity",
          "type": "string"
        },
        {
          "internalType": "string",
          "name": "manufacturing",
          "type": "string"
        }
      ],
      "stateMutability": "view",
      "type": "function"
    },
    {
      "inputs": [
        {
          "internalType": "uint256",
          "name": "",
          "type": "uint256"
        }
      ],
      "name": "workers_list",
      "outputs": [
        {
          "internalType": "string",
          "name": "name",
          "type": "string"
        },
        {
          "internalType": "int256",
          "name": "id",
          "type": "int256"
        }
      ],
      "stateMutability": "view",
      "type": "function"
    }
  ],
  "bytecode": "60806040525f6001555f600255348015610017575f80fd5b50335f806101000a81548173ffffffffffffffffffffffffffffffffffffffff021916908373ffffffffffffffffffffffffffffffffffffffff160217905550612126806100645f395ff3fe608060405260043610610085575f3560e01c8063a304fbc311610058578063a304fbc314610148578063b20fca6014610164578063bd347ed714610180578063c29b2f20146101c2578063f7aed773146101ec57610085565b8063161209e3146100895780632ffb560d146100c557806355ed1a01146100e1578063876afa611461011e575b5f80fd5b348015610094575f80fd5b506100af60048036038101906100aa9190611202565b61022d565b6040516100bc9190611442565b60405180910390f35b6100df60048036038101906100da91906115b8565b610481565b005b3480156100ec575f80fd5b50610107600480360381019061010291906116dc565b610602565b60405161011592919061175e565b60405180910390f35b348015610129575f80fd5b506101326106b7565b60405161013f9190611881565b60405180910390f35b610162600480360381019061015d91906118a1565b6107ac565b005b61017e600480360381019061017991906118e8565b610849565b005b34801561018b575f80fd5b506101a660048036038101906101a191906119eb565b6109ae565b6040516101b99796959493929190611a38565b60405180910390f35b3480156101cd575f80fd5b506101d6610ba4565b6040516101e39190611c17565b60405180910390f35b3480156101f7575f80fd5b50610212600480360381019061020d91906116dc565b610ed9565b60405161022496959493929190611c37565b60405180910390f35b606060145f8381526020019081526020015f20805480602002602001604051908101604052809291908181526020015f905b82821015610476578382905f5260205f2090600702016040518060e00160405290815f8201548152602001600182015481526020016002820180546102a390611ce6565b80601f01602080910402602001604051908101604052809291908181526020018280546102cf90611ce6565b801561031a5780601f106102f15761010080835404028352916020019161031a565b820191905f5260205f20905b8154815290600101906020018083116102fd57829003601f168201915b5050505050815260200160038201805461033390611ce6565b80601f016020809104026020016040519081016040528092919081815260200182805461035f90611ce6565b80156103aa5780601f10610381576101008083540402835291602001916103aa565b820191905f5260205f20905b81548152906001019060200180831161038d57829003601f168201915b505050505081526020016004820180546103c390611ce6565b80601f01602080910402602001604051908101604052809291908181526020018280546103ef90611ce6565b801561043a5780601f106104115761010080835404028352916020019161043a565b820191905f5260205f20905b81548152906001019060200180831161041d57829003601f168201915b5050505050815260200160058201548152602001600682015f9054906101000a900460ff1615151515815250508152602001906001019061025f565b505050509050919050565b6040518060e00160405280858152602001848152602001888152602001878152602001868152602001838152602001821515815250600d5f820151815f01556020820151816001015560408201518160020190816104df9190611eb3565b5060608201518160030190816104f59190611eb3565b50608082015181600401908161050b9190611eb3565b5060a0820151816005015560c0820151816006015f6101000a81548160ff02191690831515021790555090505060145f8481526020019081526020015f20600d908060018154018082558091505060019003905f5260205f2090600702015f909190919091505f820154815f015560018201548160010155600282018160020190816105979190611f97565b50600382018160030190816105ac9190611f97565b50600482018160040190816105c19190611f97565b5060058201548160050155600682015f9054906101000a900460ff16816006015f6101000a81548160ff021916908315150217905550505050505050505050565b600c8181548110610611575f80fd5b905f5260205f2090600202015f91509050805f01805461063090611ce6565b80601f016020809104026020016040519081016040528092919081815260200182805461065c90611ce6565b80156106a75780601f1061067e576101008083540402835291602001916106a7565b820191905f5260205f20905b81548152906001019060200180831161068a57829003601f168201915b5050505050908060010154905082565b6060600c805480602002602001604051908101604052809291908181526020015f905b828210156107a3578382905f5260205f2090600202016040518060400160405290815f8201805461070a90611ce6565b80601f016020809104026020016040519081016040528092919081815260200182805461073690611ce6565b80156107815780601f1061075857610100808354040283529160200191610781565b820191905f5260205f20905b81548152906001019060200180831161076457829003601f168201915b50505050508152602001600182015481525050815260200190600101906106da565b50505050905090565b6040518060400160405280828152602001600254815250600a5f820151815f0190816107d89190611eb3565b5060208201518160010155905050600c600a908060018154018082558091505060019003905f5260205f2090600202015f909190919091505f8201815f0190816108229190611f97565b5060018201548160010155505060025f815480929190610841906120a9565b919050555050565b6040518060c0016040528060015481526020018681526020018581526020018481526020018381526020018281525060035f820151815f015560208201518160010190816108979190611eb3565b5060408201518160020190816108ad9190611eb3565b5060608201518160030190816108c39190611eb3565b5060808201518160040190816108d99190611eb3565b5060a08201518160050190816108ef9190611eb3565b5090505060096003908060018154018082558091505060019003905f5260205f2090600602015f909190919091505f820154815f0155600182018160010190816109399190611f97565b506002820181600201908161094e9190611f97565b50600382018160030190816109639190611f97565b50600482018160040190816109789190611f97565b506005820181600501908161098d9190611f97565b50505060015f8154809291906109a2906120a9565b91905055505050505050565b6014602052815f5260405f2081815481106109c7575f80fd5b905f5260205f2090600702015f9150915050805f0154908060010154908060020180546109f390611ce6565b80601f0160208091040260200160405190810160405280929190818152602001828054610a1f90611ce6565b8015610a6a5780601f10610a4157610100808354040283529160200191610a6a565b820191905f5260205f20905b815481529060010190602001808311610a4d57829003601f168201915b505050505090806003018054610a7f90611ce6565b80601f0160208091040260200160405190810160405280929190818152602001828054610aab90611ce6565b8015610af65780601f10610acd57610100808354040283529160200191610af6565b820191905f5260205f20905b815481529060010190602001808311610ad957829003601f168201915b505050505090806004018054610b0b90611ce6565b80601f0160208091040260200160405190810160405280929190818152602001828054610b3790611ce6565b8015610b825780601f10610b5957610100808354040283529160200191610b82565b820191905f5260205f20905b815481529060010190602001808311610b6557829003601f168201915b505050505090806005015490806006015f9054906101000a900460ff16905087565b60606009805480602002602001604051908101604052809291908181526020015f905b82821015610ed0578382905f5260205f2090600602016040518060c00160405290815f8201548152602001600182018054610c0190611ce6565b80601f0160208091040260200160405190810160405280929190818152602001828054610c2d90611ce6565b8015610c785780601f10610c4f57610100808354040283529160200191610c78565b820191905f5260205f20905b815481529060010190602001808311610c5b57829003601f168201915b50505050508152602001600282018054610c9190611ce6565b80601f0160208091040260200160405190810160405280929190818152602001828054610cbd90611ce6565b8015610d085780601f10610cdf57610100808354040283529160200191610d08565b820191905f5260205f20905b815481529060010190602001808311610ceb57829003601f168201915b50505050508152602001600382018054610d2190611ce6565b80601f0160208091040260200160405190810160405280929190818152602001828054610d4d90611ce6565b8015610d985780601f10610d6f57610100808354040283529160200191610d98565b820191905f5260205f20905b815481529060010190602001808311610d7b57829003601f168201915b50505050508152602001600482018054610db190611ce6565b80601f0160208091040260200160405190810160405280929190818152602001828054610ddd90611ce6565b8015610e285780601f10610dff57610100808354040283529160200191610e28565b820191905f5260205f20905b815481529060010190602001808311610e0b57829003601f168201915b50505050508152602001600582018054610e4190611ce6565b80601f0160208091040260200160405190810160405280929190818152602001828054610e6d90611ce6565b8015610eb85780601f10610e8f57610100808354040283529160200191610eb8565b820191905f5260205f20905b815481529060010190602001808311610e9b57829003601f168201915b50505050508152505081526020019060010190610bc7565b50505050905090565b60098181548110610ee8575f80fd5b905f5260205f2090600602015f91509050805f015490806001018054610f0d90611ce6565b80601f0160208091040260200160405190810160405280929190818152602001828054610f3990611ce6565b8015610f845780601f10610f5b57610100808354040283529160200191610f84565b820191905f5260205f20905b815481529060010190602001808311610f6757829003601f168201915b505050505090806002018054610f9990611ce6565b80601f0160208091040260200160405190810160405280929190818152602001828054610fc590611ce6565b80156110105780601f10610fe757610100808354040283529160200191611010565b820191905f5260205f20905b815481529060010190602001808311610ff357829003601f168201915b50505050509080600301805461102590611ce6565b80601f016020809104026020016040519081016040528092919081815260200182805461105190611ce6565b801561109c5780601f106110735761010080835404028352916020019161109c565b820191905f5260205f20905b81548152906001019060200180831161107f57829003601f168201915b5050505050908060040180546110b190611ce6565b80601f01602080910402602001604051908101604052809291908181526020018280546110dd90611ce6565b80156111285780601f106110ff57610100808354040283529160200191611128565b820191905f5260205f20905b81548152906001019060200180831161110b57829003601f168201915b50505050509080600501805461113d90611ce6565b80601f016020809104026020016040519081016040528092919081815260200182805461116990611ce6565b80156111b45780601f1061118b576101008083540402835291602001916111b4565b820191905f5260205f20905b81548152906001019060200180831161119757829003601f168201915b5050505050905086565b5f604051905090565b5f80fd5b5f80fd5b5f819050919050565b6111e1816111cf565b81146111eb575f80fd5b50565b5f813590506111fc816111d8565b92915050565b5f60208284031215611217576112166111c7565b5b5f611224848285016111ee565b91505092915050565b5f81519050919050565b5f82825260208201905092915050565b5f819050602082019050919050565b61125f816111cf565b82525050565b5f81519050919050565b5f82825260208201905092915050565b5f5b8381101561129c578082015181840152602081019050611281565b5f8484015250505050565b5f601f19601f8301169050919050565b5f6112c182611265565b6112cb818561126f565b93506112db81856020860161127f565b6112e4816112a7565b840191505092915050565b5f8115159050919050565b611303816112ef565b82525050565b5f60e083015f83015161131e5f860182611256565b5060208301516113316020860182611256565b506040830151848203604086015261134982826112b7565b9150506060830151848203606086015261136382826112b7565b9150506080830151848203608086015261137d82826112b7565b91505060a083015161139260a0860182611256565b5060c08301516113a560c08601826112fa565b508091505092915050565b5f6113bb8383611309565b905092915050565b5f602082019050919050565b5f6113d98261122d565b6113e38185611237565b9350836020820285016113f585611247565b805f5b85811015611430578484038952815161141185826113b0565b945061141c836113c3565b925060208a019950506001810190506113f8565b50829750879550505050505092915050565b5f6020820190508181035f83015261145a81846113cf565b905092915050565b5f80fd5b5f80fd5b7f4e487b71000000000000000000000000000000000000000000000000000000005f52604160045260245ffd5b6114a0826112a7565b810181811067ffffffffffffffff821117156114bf576114be61146a565b5b80604052505050565b5f6114d16111be565b90506114dd8282611497565b919050565b5f67ffffffffffffffff8211156114fc576114fb61146a565b5b611505826112a7565b9050602081019050919050565b828183375f83830152505050565b5f61153261152d846114e2565b6114c8565b90508281526020810184848401111561154e5761154d611466565b5b611559848285611512565b509392505050565b5f82601f83011261157557611574611462565b5b8135611585848260208601611520565b91505092915050565b611597816112ef565b81146115a1575f80fd5b50565b5f813590506115b28161158e565b92915050565b5f805f805f805f60e0888a0312156115d3576115d26111c7565b5b5f88013567ffffffffffffffff8111156115f0576115ef6111cb565b5b6115fc8a828b01611561565b975050602088013567ffffffffffffffff81111561161d5761161c6111cb565b5b6116298a828b01611561565b965050604088013567ffffffffffffffff81111561164a576116496111cb565b5b6116568a828b01611561565b95505060606116678a828b016111ee565b94505060806116788a828b016111ee565b93505060a06116898a828b016111ee565b92505060c061169a8a828b016115a4565b91505092959891949750929550565b5f819050919050565b6116bb816116a9565b81146116c5575f80fd5b50565b5f813590506116d6816116b2565b92915050565b5f602082840312156116f1576116f06111c7565b5b5f6116fe848285016116c8565b91505092915050565b5f82825260208201905092915050565b5f61172182611265565b61172b8185611707565b935061173b81856020860161127f565b611744816112a7565b840191505092915050565b611758816111cf565b82525050565b5f6040820190508181035f8301526117768185611717565b9050611785602083018461174f565b9392505050565b5f81519050919050565b5f82825260208201905092915050565b5f819050602082019050919050565b5f604083015f8301518482035f8601526117cf82826112b7565b91505060208301516117e46020860182611256565b508091505092915050565b5f6117fa83836117b5565b905092915050565b5f602082019050919050565b5f6118188261178c565b6118228185611796565b935083602082028501611834856117a6565b805f5b8581101561186f578484038952815161185085826117ef565b945061185b83611802565b925060208a01995050600181019050611837565b50829750879550505050505092915050565b5f6020820190508181035f830152611899818461180e565b905092915050565b5f602082840312156118b6576118b56111c7565b5b5f82013567ffffffffffffffff8111156118d3576118d26111cb565b5b6118df84828501611561565b91505092915050565b5f805f805f60a08688031215611901576119006111c7565b5b5f86013567ffffffffffffffff81111561191e5761191d6111cb565b5b61192a88828901611561565b955050602086013567ffffffffffffffff81111561194b5761194a6111cb565b5b61195788828901611561565b945050604086013567ffffffffffffffff811115611978576119776111cb565b5b61198488828901611561565b935050606086013567ffffffffffffffff8111156119a5576119a46111cb565b5b6119b188828901611561565b925050608086013567ffffffffffffffff8111156119d2576119d16111cb565b5b6119de88828901611561565b9150509295509295909350565b5f8060408385031215611a0157611a006111c7565b5b5f611a0e858286016116c8565b9250506020611a1f858286016116c8565b9150509250929050565b611a32816112ef565b82525050565b5f60e082019050611a4b5f83018a61174f565b611a58602083018961174f565b8181036040830152611a6a8188611717565b90508181036060830152611a7e8187611717565b90508181036080830152611a928186611717565b9050611aa160a083018561174f565b611aae60c0830184611a29565b98975050505050505050565b5f81519050919050565b5f82825260208201905092915050565b5f819050602082019050919050565b5f60c083015f830151611af85f860182611256565b5060208301518482036020860152611b1082826112b7565b91505060408301518482036040860152611b2a82826112b7565b91505060608301518482036060860152611b4482826112b7565b91505060808301518482036080860152611b5e82826112b7565b91505060a083015184820360a0860152611b7882826112b7565b9150508091505092915050565b5f611b908383611ae3565b905092915050565b5f602082019050919050565b5f611bae82611aba565b611bb88185611ac4565b935083602082028501611bca85611ad4565b805f5b85811015611c055784840389528151611be68582611b85565b9450611bf183611b98565b925060208a01995050600181019050611bcd565b50829750879550505050505092915050565b5f6020820190508181035f830152611c2f8184611ba4565b905092915050565b5f60c082019050611c4a5f83018961174f565b8181036020830152611c5c8188611717565b90508181036040830152611c708187611717565b90508181036060830152611c848186611717565b90508181036080830152611c988185611717565b905081810360a0830152611cac8184611717565b9050979650505050505050565b7f4e487b71000000000000000000000000000000000000000000000000000000005f52602260045260245ffd5b5f6002820490506001821680611cfd57607f821691505b602082108103611d1057611d0f611cb9565b5b50919050565b5f819050815f5260205f209050919050565b5f6020601f8301049050919050565b5f82821b905092915050565b5f60088302611d727fffffffffffffffffffffffffffffffffffffffffffffffffffffffffffffffff82611d37565b611d7c8683611d37565b95508019841693508086168417925050509392505050565b5f819050919050565b5f611db7611db2611dad846116a9565b611d94565b6116a9565b9050919050565b5f819050919050565b611dd083611d9d565b611de4611ddc82611dbe565b848454611d43565b825550505050565b5f90565b611df8611dec565b611e03818484611dc7565b505050565b5b81811015611e2657611e1b5f82611df0565b600181019050611e09565b5050565b601f821115611e6b57611e3c81611d16565b611e4584611d28565b81016020851015611e54578190505b611e68611e6085611d28565b830182611e08565b50505b505050565b5f82821c905092915050565b5f611e8b5f1984600802611e70565b1980831691505092915050565b5f611ea38383611e7c565b9150826002028217905092915050565b611ebc82611265565b67ffffffffffffffff811115611ed557611ed461146a565b5b611edf8254611ce6565b611eea828285611e2a565b5f60209050601f831160018114611f1b575f8415611f09578287015190505b611f138582611e98565b865550611f7a565b601f198416611f2986611d16565b5f5b82811015611f5057848901518255600182019150602085019450602081019050611f2b565b86831015611f6d5784890151611f69601f891682611e7c565b8355505b6001600288020188555050505b505050505050565b5f81549050611f9081611ce6565b9050919050565b818103611fa557505061207a565b611fae82611f82565b67ffffffffffffffff811115611fc757611fc661146a565b5b611fd18254611ce6565b611fdc828285611e2a565b5f601f831160018114612009575f8415611ff7578287015490505b6120018582611e98565b865550612073565b601f19841661201787611d16565b965061202286611d16565b5f5b8281101561204957848901548255600182019150600185019450602081019050612024565b868310156120665784890154612062601f891682611e7c565b8355505b6001600288020188555050505b5050505050505b565b7f4e487b71000000000000000000000000000000000000000000000000000000005f52601160045260245ffd5b5f6120b3826111cf565b91507f7fffffffffffffffffffffffffffffffffffffffffffffffffffffffffffffff82036120e5576120e461207c565b5b60018201905091905056fea2646970667358221220fabca0fe83a56a5a5966fde9155f4f0d2877081cd89ff41f8ea5b16978f1d3c864736f6c63430008160033",
  "linkReferences": {},
  "deployedLinkReferences": {}
}